S00D000041737367332E7372656356
S113A00018E8FF1FD5A6000093A5000093A5000043
S113A01093A5000093A5000093A500000000000094
S113A02000000000000000000000000093A50000F4
S113A03093A500000000000093A5000093A5000074
S113A04010B48C480168802292010A4302600168BE
S113A050802252010A4302600168802212010A43ED
S113A06002608020400084490A6802430A608349F0
S113A0700A6802430A60824A136803431360814AF0
S113A08013681843106003200B6803430B601168C6
S113A09008431060802080057B490A6802430A60F7
S113A0A020217A4A13680B431360794A1368082401
S113A0B0A34313601368774C1C4014609C4A1368D4
S113A0C018431060B44802681143016010BC704723
S113A0D000B5002101E000BF491C020092B2E82350
S113A0E053439942F7D300BD70B5924892490A7818
S113A0F003781343DBB2002B1ED18024A4058F48C0
S113A1000168214301602025A448016829430160B6
S113A110A34E307880B2FFF7DBFF854801680C431B
S113A12004609D4801680D43056064203178401A3D
S113A13080B2FFF7CDFF39E00A78002A18D10278FF
S113A140012A15D18024A4057C48016821430160BB
S113A150934D287880B2FFF7BBFF754801680C4324
S113A160046064202978401A80B2FFF7B1FF1DE033
S113A1700978012917D10078002814D120248748B0
S113A180016821430160864D287880B2FFF7A0FF63
S113A190814801680C43046064202978401A80B225
S113A1A0FFF796FF02E06420FFF792FF70BD0020E6
S113A1B0B449087070470120B24908707047002004
S113A1C0B149087070470120AF490870704738B52D
S113A1D00400206864284BD356480178002903D032
S113A1E055490A78002A0ED153490978A74A1170B3
S113A1F00078A7490870FFF7DEFFFFF7E4FF0020AF
S113A200A449086032E0007801282FD10878012899
S113A2102CD19F4D287800280DD1FFF7D0FF9B4803
S113A2200078002803D103209A49086005E0012042
S113A2309849086001E0FFF7C6FF944800780028B9
S113A2400CD1FFF7B4FF2878002803D103209149EB
S113A250086005E002208F49086001E0FFF7ABFFCA
S113A26032204F49087001208B490870002020607B
S113A27031BD00003880044074D004400CB0044068
S113A28014C0044030B0044014F10F40D4F00F4027
S113A29094F00F40FFEFFFFFF1B501207F4C2568DC
S113A2A0EE08050035402E00009F3F78F6B2BE420E
S113A2B009D02E00F6B2002E05D1764E37687F1CE9
S113A2C0376000260E602E00009F3F78F6B2BE4233
S113A2D006D12E00F6B2002E02D10E68761C0E6056
S113A2E000990D702168090B084001001478C9B267
S113A2F0A1420ED00100C9B200290AD168490C68F4
S113A300684D2C600C68641C0C6000211960664C5C
S113A310217001001478C9B2A14206D10100C9B26A
S113A320002902D11968491C19601070F1BD0000A0
S113A33004F10F400DE0FF1F0CE0FF1F08F10F4078
S113A34038B50078012826D14F480078002803D07A
S113A3504C48007800281ED103244E4D2868210063
S113A36000F0BFF8012904D1FFF729FFFFF723FF0D
S113A37011E02868210000F0B4F8022904D1FFF7A5
S113A38022FFFFF714FF06E02868002803D0FFF738
S113A39016FFFFF70CFF31BDC4F00F40C8F00F40AB
S113A3A010E0FF1F70B50078012830D13C4C3D4DC2
S113A3B028682168884263D237480178012910D17E
S113A3C03A4E31781931642904DB0021017064208C
S113A3D0307019E030781930642100F07FF8317062
S113A3E012E0017800290FD1304E31781939012952
S113A3F004DA012101700020307005E0307819384A
S113A400642100F06BF831702068286038E0086837
S113A410642835D364240868210000F062F88807B2
S113A420800F00282CD120480178002928D11A490E
S113A4300A78012A0ED11D4A13785B1C642B05DBB4
S113A44000230B7014700121017015E01078401C7A
S113A450107011E00A78002A0ED1144A13785B1E9A
S113A460012B06DA01231C000C700021117003700B
S113A47002E01078401E107009480068094908601D
S113A48070BD00000CE0FF1F0DE0FF1F0EE0FF1F7A
S113A4900FE0FF1F00E0FF1F11E0FF1F90F00F40CF
S113A4A004E0FF1F08E0FF1F12E0FF1F10E0FF1F82
S113A4B0F446002804D4494200F013F840426047AF
S113A4C04042002905D45FD000F00BF840424942D5
S113A4D06047494200F005F84942604703460B4390
S113A4E0E6D40022030A8B420BD203098B4219D211
S113A4F043088B422ED2411A00D2014652411046E3
S113A5007047FF2209023FD012068B4205D3121274
S113A51009028B4201D31212090203098B4219D397
S113A52000E0090AC3098B4201D3CB01C01A52418E
S113A53083098B4201D38B01C01A524143098B42D8
S113A54001D34B01C01A524103098B4201D30B01C1
S113A550C01A5241C3088B4201D3CB00C01A5241E6
S113A56083088B4201D38B00C01A524143088B42AB
S113A57001D34B00C01A5241884200D3401A5241C1
S113A580CFD201461046704708B500F001F808BD67
S113A5907047FEE71FB5012468460470684644709E
S113A5A0FFF74EFD00200100134A11700100134A09
S113A5B0117013490C7013490C7013490860134946
S113A5C00860134908600290019001A8FFF78CFD10
S113A5D001AB00AA521C02A96846FFF75DFE02A85F
S113A5E0FFF7F5FD6846FFF7ABFE01A900A8401C84
S113A5F0FFF7D8FEE9E700BF0EE0FF1F0FE0FF1FE3
S113A6000CE0FF1F0DE0FF1F00E0FF1F04E0FF1F31
S113A61008E0FF1F70B40123002413E00168001D4B
S113A620194202D04D466918491E0C60091D121FBB
S113A630042AFAD20D00960701D50C80AD1C1A40ED
S113A64000D02C700268001D002AE7D170BC70474E
S113A65010B5074979441831064C7C44163404E09B
S113A660081D0A68891888470100A142F8D110BD65
S113A67008000000140000009DFFFFFF140000000C
S113A68000E0FF1F0000000000F00DF8002801D0DA
S113A690FFF7DEFF00BF00BF002000BF00BFFFF7D1
S113A6A079FF00F002F80120704780B500F002F84D
S113A6B001BD00000746384600F002F8FBE7000041
S113A6C080B500BF00BF024A11001820ABBEFBE7F3
S113A6D0260002000548014603B4684680F3098851
S113A6E000BF00BF00BF00BFFFF7CEFFA5EDF5FE22
S903A6D581
